:020000040800F2
:1040000040210020C9410008856900089364000828
:104010001969000831440008A59400080000000058
:1040200000000000000000000000000039700008DF
:1040300041450008000000002D6D0008D5740008FF
:10404000E3410008E3410008E3410008E3410008C0
:10405000E3410008E3410008E3410008E3410008B0
:10406000E3410008E3410008E3410008E3410008A0
:10407000E3410008E3410008E3410008E341000890
:10408000E3410008E3410008E341000845900008CF
:1040900051900008E3410008E3410008E3410008B3
:1040A000E341000851750008E3410008E3410008BE
:1040B0005D750008E341000869750008E3410008E8
:1040C000E3410008E3410008E3410008E341000840
:1040D000E3410008F5790008E3410008E3410008E6
:1040E000E3410008E3410008E341000800F002F862
:1040F00000F05AF80AA090E8000C82448344AAF128
:104100000107DA4501D100F04FF8AFF2090EBAE825
:104110000F0013F0010F18BFFB1A43F001031847FB
:10412000DC5E0000FC5E00000A444FF0000C10F85A
:10413000013B13F0070408BF10F8014B1D1108BF25
:1041400010F8015B641E05D010F8016B641E01F8C5
:10415000016BF9D113F0080F1EBF10F8014BAD1C15
:104160000C1B09D16D1E58BF01F801CBFAD505E033
:1041700014F8016B01F8016B6D1EF9D59142D6D38D
:10418000704700000023002400250026103A28BFB5
:1041900078C1FBD8520728BF30C148BF0B607047B9
:1041A0001FB51FBD10B510BD00F06BF81146FFF72D
:1041B000F7FF05F089F900F089F803B4FFF7F2FF83
:1041C00003BC00F091F80000094880470948004707
:1041D000FEE7FEE7FEE7FEE7FEE7FEE7FEE7FEE7B7
:1041E000FEE7FEE704480549054A064B7047000014
:1041F0004F750008ED4000084019002040210020C4
:10420000401C0020401C0020B2F120030AD5C2F15E
:10421000200320FA02F001FA03F321FA02F140EA46
:104220000300704721FA03F04FF0000170474FF090
:10423000000200B5134694469646203922BFA0E8F6
:104240000C50A0E80C50B1F12001BFF4F7AF090702
:1042500028BFA0E80C5048BF0CC05DF804EB8900F3
:1042600028BF40F8042B08BF704748BF20F8022B36
:1042700011F0804F18BF00F8012B7047704770474E
:104280007047754600F02CF8AE4605006946534667
:1042900020F00700854618B020B5FFF7A3FFBDE862
:1042A00020404FF000064FF000074FF000084FF09D
:1042B000000B21F00701AC46ACE8C009ACE8C0092E
:1042C000ACE8C009ACE8C0098D46704710B504469B
:1042D000AFF300802046BDE81040FFF76EBF00003E
:1042E00000487047DC18002001491820ABBEFEE7EB
:1042F000260002007047000010B5114C0122114643
:10430000204600F020FC01220221204600F01BFC88
:104310000C4C01221021204600F015FC0122202126
:10432000204600F010FC01221146204600F00BFC54
:1043300020460122BDE81040022100F004BC00002C
:10434000000C014000080140F0B5104CA578112D7B
:104350001BD26D1CEEB20E4D06EB4607A67045F85B
:10436000270005EB8700012E4160037242720CD1D9
:10437000E868A06060612869E060287D20706A7547
:1043800062712271E078401CE070F0BD10000020E6
:10439000D8030020D0E91521012A01D012B103E091
:1043A000491C00E0491E81650A46002112F1030FF5
:1043B00001DC816503E0032A02DB81650121C16420
:1043C0007047000030B585B0002400940194029439
:1043D0000394049400F0A6FA124D0120CDE9025096
:1043E00004A90094684600F0FFF9040006D10122F8
:1043F00000232946022000F055FA044600F048FA4E
:10440000002C0DD172B6BFF34F8F07480168074AE1
:1044100001F4E06111430160BFF34F8F00BFFDE77E
:1044200005B030BD00FC00080CED00E00400FA050A
:10443000FEE70020704700207047000010B5002202
:104440000449054803F0CEFB0449034803F0C4FBCC
:10445000002010BDE40F002020070020E40B002006
:1044600010B5044602F0EAFD02F0AEFC4FF4005134
:10447000054800F060FB2146044803F0ADFB03480B
:1044800003F08EFB002010BD00100140200700202B
:1044900070B50C4605464FF400510A4800F04BFB3E
:1044A0000948D0F8B812D1F8140208B1012070BD43
:1044B00022462946044803F095FBBDE870400248B7
:1044C00003F0EEBB001001402007002010B50446A9
:1044D000D4E90201D4E90E2305F0DEFB06D9D4E9C4
:1044E0000201D4E9102305F09DFA02D80120C4F896
:1044F000880010BDF0B50023CD081EE0D9000022D1
:10450000425401264FF0A10C8C18044467781A2FEE
:1045100007D1475C06FA02FE47EA0E07475484F8C3
:1045200001C0521C082AEFDB445C5B1C04F0F00263
:1045300004F00F0444EA42044454AB42DED3F0BD1D
:10454000704710B50446D4E90201D4E9082305F008
:10455000E5FB00221346C4E9040105F063FA07D223
:10456000FF2084F88C00616981F00041616102E004
:10457000012084F88C0014F88C0F14F8441C484374
:104580002070607054E91F01D4E9092305F086FA10
:10459000D4E9072305F07AF805F000FA60604B20B3
:1045A000606110BD72B6FEE706490020C86106488A
:1045B000016941F004010161016941F040010161BB
:1045C000704700000007002000200240064A00213A
:1045D000D16106490A6942F002020A61486108692C
:1045E00040F04000086170470007002000200240B2
:1045F000044B0022DA61044A136943F0010313619A
:10460000018070470007002000200240144800226B
:10461000C168CB06134904D5CA6942F00202CA61D7
:104620001022C3685B0705D5CB6943F00103CB615A
:1046300042F00402C369DB0707D0CB6943F00403EF
:10464000CB61C16921F00101C161A2F5807101391D
:1046500001D0C2607047C16921F00101C16170479A
:10466000002002400007002070B5054600F070FAF7
:104670000646114C09E0681C07D025B100F068FA25
:10468000801BA84201D9032070BDE068C007F2D1A9
:10469000E068800601D52020E060E068C00605D40F
:1046A000E069C00702D1E068400703D5FFF7AEFF1D
:1046B000012070BD002070BD0020024070B504468E
:1046C0000D48844204D14FF400610C4800F033FAE5
:1046D00009480B4DB830844203D18021284600F0B0
:1046E0002AFA0848844205D12846BDE870400821CE
:1046F00000F021BA70BD0000B0010020000C0140A4
:10470000000801402003002010B590F8211000227D
:10471000022905D00421816380F82020012010BDEA
:1047200001680B6823F00E030B6001680B6823F02F
:1047300001030B6090F84030C46B012101FA03F3D0
:10474000636080F8211080F82020104610BD000022
:1047500010B590F821100024022903D004218163B0
:1047600001243DE001680A6822F00E020A60016837
:104770000A6822F001020A601A4A0168914201D1D6
:10478000012121E0174A1432914201D110211BE08E
:10479000144A2832914201D1891515E0114A3C3260
:1047A000914201D189140FE00E4A5032914202D158
:1047B0004FF4803108E00B4A6432914202D14FF449
:1047C000801101E04FF08071064A083A51600121E2
:1047D00080F82110002180F82010416B01B188473A
:1047E000204610BD080002402DE9F0470546264846
:1047F0000F460126017E01290FD001218146017655
:104800002868DFF888804CF25034022808D0A2468D
:104810002046FFF729FFA8B131E00220BDE8F0876C
:104820002046FFF721FF08BB0120FFF7BDFE204611
:10483000FFF71AFFD8F81010064621F00401C8F857
:1048400010101CE04FF0FF303860AC6811E02046DB
:10485000FFF7BCFE5046FFF707FFD8F81010060020
:1048600021F00201C8F8101001D03C6007E004F507
:104870008064D5E9020100EB8120A042E7D8002145
:1048800089F818103046C9E70007002000200240D0
:104890000348016941F08001016100207047000078
:1048A000002002402DE9F05F07461C48884600249E
:1048B000017E15461E46012909D001218146017657
:1048C0004CF2503A5046FFF7CFFE18B122E00220DA
:1048D000BDE8F09F012F02D0022F00D00427D3465D
:1048E000DFF83CA0220128463146FFF78DFC81B25B
:1048F00008EB4400FFF77CFE5846FFF7B5FEDAF8F8
:10490000102022F00102CAF8102018B9641CE4B289
:10491000BC42E7D3002289F81820D9E7000700201D
:1049200000200240064900200A69120607D5054A00
:104930004A60054A4A600969090600D501207047A6
:104940000020024023016745AB89EFCD2DE9F84FE8
:10495000DFF8B8910024A9F1040B23460F2709F1D1
:10496000040AABF1040EC9E00125A5402A40AA4281
:104970007DD1674ED1F804C0ACEB0608B44532D007
:1049800014DCBCF1030F3AD009DCBCF1000F2AD0D3
:10499000BCF1010F1CD0BCF1020F31D11DE0BCF104
:1049A000110F17D0BCF1120F2AD119E0B8F5881FEA
:1049B00019D006DCB8F5803F15D0B8F5801F1FD19F
:1049C00011E0B8F5001F0ED0B8F5041F18D10AE0A9
:1049D000CB6815E0CB681B1D12E0CB6808330FE0F5
:1049E000CB680C330CE08B682BB1012B4FF0080324
:1049F00003D0456104E0042302E0056100E00023E8
:104A0000FF2A01D8064601E000F104064FEA8405BA
:104A100001D9A5F12005D6F8008007FA05FC28EA9F
:104A20000C0803FA05F548EA0508C6F800804D6849
:104A3000ED0062D5374DAE6946F00106AE61AD6955
:104A400024F0030605F001050095334D06EB050C37
:104A5000DCF80850A607360F07FA06F825EA08051D
:104A6000DFF8B880404503D14FF0000817E044E07C
:104A7000DFF8AC80404502D14FF001080FE0DFF8CD
:104A8000A480404502D14FF0020808E0DFF898808A
:104A9000404502D14FF0030801E04FF0040808FA46
:104AA00006F848EA0508CCF808804D68D9F8006097
:104AB000ED024D4601D5164300E096432E604D6849
:104AC000DAF80060AD02554601D5164300E0964382
:104AD0002E604D68DBF80060AD035D4601D51643DE
:104AE00000E096432E604D68DEF80060ED037546E9
:104AF00001D5164300E096432E60641C0D682A46DB
:104B0000E5407FF431AFBDE8F88F000008040140B4
:104B10000000111000100240000001400008014098
:104B2000000C014000100140001401408068084062
:104B300000D001207047C26821EA02030A4043EA1C
:104B40000241016170470AB1016170470904FBE746
:104B500001488068704700003000002002488168EA
:104B6000027811448160704730000020074810B57A
:104B7000016841F010010160032000F075F80F207A
:104B800000F006F800F024F8002010BD00200240DC
:104B900070B50D4D04464FF47A712878B1FBF0F0F2
:104BA0000A490968B1FBF0F000F0FEFF48B9102C8B
:104BB00007D200222146501E00F036F800206C601B
:104BC00070BD012070BD0000300000202C000020CE
:104BD0000C4808B5816941F001018161816901F0EA
:104BE00001010091C16941F08051C161C06900F0CB
:104BF000805000900448416821F0E06141F000716C
:104C0000416008BD0010024000000140002809DB9F
:104C100000F01F02012191404009800000F1E020D6
:104C2000C0F8001170470000F0B40E4B1B680C4632
:104C3000C3F30223C3F10705042D00D90425191D70
:104C4000072901D2002300E0DB1E012606FA05F148
:104C5000491E214099409E40761E16403143F0BCCB
:104C600004F021BC0CED00E0064900F007020868E2
:104C70004FF6FF03184040EA0220034A1043086041
:104C8000704700000CED00E00000FA0510B50C06BE
:104C900007D501F0070101EB810100EBC1001030E5
:104CA00005E001EB810100EBC10000F5A87099B2AD
:104CB00032B1012202730181190C4181002010BD23
:104CC00000220273C180F9E7704701EB810200EB1B
:104CD000C202D0F8D402526A03F085B901EB810216
:104CE00000EBC202D0F8D402D2F8642103F0DEB99E
:104CF00070B504460B0601F0070000EB800104EBE1
:104D0000C1014FF001024FF0000502D54A74103185
:104D100003E081F8515101F5A871087094F89002F0
:104D2000012808D084F89022206803F01FFE84F840
:104D30009052002070BD022070BD70B5044601F095
:104D40000F002279904201D9012070BD0B0601F0BD
:104D5000070000EB800104EBC1014FF001024FF0AE
:104D6000000502D54A74103103E081F8515101F574
:104D7000A8718D70087094F89002012808D084F80A
:104D80009022206803F08FFE84F89052002070BDBE
:104D9000022070BD2DE9F05F04685FEA424C0B7899
:104DA0008D69B4F850C04FF000064BF68F7948F289
:104DB000800A48F68F7B48F2C00E4FF480672AD5F0
:104DC0004FF0020808EBC308C44407EB4C07E45B50
:104DD000C4F30904A54203D32D1B8D6101D00BE060
:104DE0008E61066836F8235005EA090585F40055FA
:104DF00045EA0A0526F82350520609D50D780368BE
:104E000033F8252002EA0B0242EA0E0223F825209D
:104E100084B30A8929E04FF0060808EBC308C444AC
:104E200007EB4C07E45BC4F30904A54203D32D1B35
:104E30008D6101D00BE08E61066836F8235005EADB
:104E4000090585F4005545EA0A0526F8235052065F
:104E500009D40B78056835F8232002EA0B0242EAF0
:104E60000E0225F823202CB14A894969006823469F
:104E700004F0F8F82046BDE8F09F2DE9F05F054604
:104E800000680C465FEA426C16468B692278B0F8DF
:104E900050C048F68F774CF280094FF4004B4FF624
:104EA000FF7E4FF4806A4FF0000172D54FF0020888
:104EB00008EBC208E0440AEB480C30F80C00C0F3E1
:104EC0000900834211D91B1AA3610FD0730407D5BF
:104ED0002E6836F822303B4043EA090326F8223098
:104EE00094F82420012A47D052E1A161607810B1E2
:104EF000012813D01AE02868B0F85030184400EBAD
:104F00000210B0F80424C2F30902A0F80424B0F897
:104F1000042442F40042A0F8042407E02868B0F812
:104F20005030184400EB0210A0F80414627828688E
:104F300012B1012A11D018E0B0F8501008442178BD
:104F400000EB0110B0F80C14C1F30901A0F80C1427
:104F5000B0F80C1441F4004105E0B0F850201044C2
:104F6000227800EB0210A0F80C1421782846FFF7F5
:104F7000ACFE700472D40BE1626902446261E269C2
:104F80000244E2612369226A9A4203D31846111A45
:104F900004E03EE084F824100AB1104621626178F2
:104FA00011B1012929D031E02968B1F8502011440C
:104FB000227801EB0211B1F80424C2F30902A1F82E
:104FC000042401F204413E2807D94209C30600D156
:104FD000521E0B884BEA822207E048B14208C30701
:104FE00000D0521C0B880EEA822213430B800DE086
:104FF0000A8842F400420A8008E02968B1F850208B
:105000001144227801EB0211A1F8040483B2228931
:10501000BAE04FF0060808EBC208E0440AEB480C7F
:1050200030F80C00C0F30900834211D31B1AA361AE
:105030000FD0730407D42E6836F822303B4043EA81
:10504000090326F8223094F82420012A51D09FE049
:10505000A161607818B1012814D01BE03FE02868F6
:10506000B0F85030184400EB0210B0F80424C2F33A
:105070000902A0F80424B0F8042442F40042A0F885
:10508000042407E02868B0F85030184400EB021000
:10509000A0F804146278286812B1012A11D018E02F
:1050A000B0F850100844217800EB0110B0F80C144F
:1050B000C1F30901A0F80C14B0F80C1441F400413C
:1050C00005E0B0F850201044227800EB0210A0F860
:1050D0000C1421782846FFF7F8FD700458D4227884
:1050E000296831F82200384040EA090021F82200FE
:1050F0004EE0626902446261E2690244E26123694E
:10510000226A9A4203D31846111A216204E00AB1B6
:105110001046216284F824106278296812B1012AAD
:1051200028D02FE0B1F850201144227801EB021171
:10513000B1F80C24C2F30902A1F80C2401F20C41CD
:105140003E2807D94209C30600D1521E0B884BEAFC
:10515000822207E048B14208C30700D0521C0B88E6
:105160000EEA822213430B800CE00A8842F40042CC
:105170000A8007E0B1F850201144227801EB0211B7
:10518000A1F80C04628983B26169286803F088FF82
:105190002278296831F8220048F6BF73184080F061
:1051A000300048F28003184321F822000020BDE8B7
:1051B000F09F01F0070101EB810100EBC100D0F885
:1051C0006C0170472DE9F04104460F0601F007001D
:1051D00000EB800104EBC1014FF001064FF0000528
:1051E00002D54E74103103E081F8515101F5A871D8
:1051F000022B08700A61CB7000D10D7194F89002F7
:10520000012809D084F89062206803F05FFA2846EC
:1052100084F89052BDE8F0810220FBE710B501F060
:10522000070404EB840100EBC101C1E9592300220A
:10523000C1F86C2181F8512181F85041006801F5D5
:10524000A87103F085FC002010BD70B504460D4622
:1052500001F007002179884201D9012070BD29069B
:105260004FF000064FF0010206D500EB800104EB81
:10527000C1014A74103107E005EB850104EBC1015F
:1052800081F8516101F5A8718A70087094F8900254
:10529000012807D084F89022206803F040FC6807BA
:1052A00002D006E0022070BD04F52671206803F0EC
:1052B000F8FB84F89062002070BD10B501F007047F
:1052C00004EB840100EBC101C1E90923012281F84B
:1052D00034200B630023CB624A7401F8104F00683E
:1052E00003F036FC002010BD1FB50446006803F033
:1052F000B5FE010403D5204601F045FB1FBD410565
:105300000DD5206830F8441F21F4806101802046CB
:1053100000F008F90021204600F01FF91FBD4104EC
:1053200005D5206830F8441F21F4804174E08104E1
:1053300005D5206830F8441F21F400516CE0C10409
:1053400014D5206830F8401F21F004010180206846
:1053500030F8401F21F008010180204600F0F5F8E8
:10536000206830F8441F21F4805155E0010540D5F4
:10537000D4F800200020694632F8203021F810309F
:10538000401CC0B20828F7D332F8400F40F00100AB
:105390001080206830F8402F22F00102028020683F
:1053A000B0F844205205FBD530F8442F22F4806237
:1053B00002800020236831F8102023F82020401CB0
:1053C000C0B20828F6D3206830F8401F41F0080129
:1053D0000180206830F8441F21F4006101802068BA
:1053E00030F8401F41F004010180204600F0E8F849
:1053F0001FBD810509D5206830F8441F21F40071D4
:105400000180204600F0A5F81FBDC005FCD520682E
:1054100030F8441F21F4807101801FBD2DE9F04157
:10542000040004D094F89102002518B107E001208F
:10543000BDE8F08184F89052204600F04DF803203A
:1054400084F891026571206803F024FB94E80F0052
:1054500003F08AFA022698BB0021206803F018FEA8
:1054600070BB002001270BE000EB800104EBC101C1
:105470004F740874CD740D624D62401CC0B28D62D1
:1054800021798142F0D8002012E000BF00EB8001BA
:1054900004EBC10181F8515181F8500181F8535159
:1054A000C1F86051C1F86451401CC0B2C1F86851E4
:1054B00021798142EAD894E80F0003F0E2FA10B1B2
:1054C00084F89162B3E7657384F89172206803F001
:1054D000D6FA0020ACE7000008B500680F49884202
:1054E0001AD10F48C16941F40001C161C0690022AD
:1054F00000F40000009011461320FFF795FB1320E5
:10550000FFF784FB002211461420FFF78DFBBDE856
:1055100008401420FFF77ABB08BD0000005C004083
:105520000010024070B5044680790125022801D0A0
:10553000FFF738F82946D4F8D40202F09FFED4F8D9
:10554000D402BDE8704002F05BBED0F8D40202F095
:105550007FBED0F8D40202F085BE10B5044690F8A4
:10556000900201280AD0012084F89002617320681B
:1055700003F090FD002084F8900210BD022010BDC1
:10558000D0F8D42200F52671104602F083BE10B583
:10559000044690F89002012810D0012084F890026F
:1055A000206803F046FD01212046FFF78DFB2068AF
:1055B00003F063FA002084F8900210BD022010BDB1
:1055C00010B50446D0F8D40202F0A3FEA07A002859
:1055D00004D00348016841F00601016010BD0000DD
:1055E00010ED00E02DE9F84305460078354CC00782
:1055F00054D0E0690026C00008D4E06940F0805033
:10560000E061E069012600F0805000902E480168BA
:10561000C90512D40168804641F480710160FFF72A
:1056200097FA074605E000BFFFF792FAC01B64280F
:1056300023D8D8F80000C005F6D5206A10F44070D1
:1056400021D0A98801F4407181421CD0206A1F49F1
:10565000012220F440700A6000220A602062C00724
:1056600011D0FFF775FA074641F2883808E000BF0D
:10567000FFF76EFAC11B414502D90320BDE8F8834C
:10568000206A8007F4D5206A696820F440700843D6
:1056900020621EB1E06920F08050E0612878800728
:1056A00005D56068A96820F4404008436060287808
:1056B000C00605D56068E96820F480000843606092
:1056C0000020DBE70010024000700040400442422E
:1056D0002DE9F0470F46050061D0434E306800F0D9
:1056E0000700B84209D2306820F007003843306024
:1056F000306800F00700B84251D128683B4C810760
:1057000012D5400703D5606840F4E06060602878F7
:10571000000703D5606840F4605060606068A96865
:1057200020F0F000084360602878C00728D068683F
:10573000012810D02168022810D0890700292EDA0C
:10574000616821F0030101436160FFF701FA8046BF
:1057500041F288390DE021688903EFE78901EDE71F
:10576000FFF7F6F9A0EB0801494502D90320BDE88F
:10577000F0876068696800F00C00B0EB810FEFD132
:10578000306800F00700B8420BD9306820F00700FD
:1057900038433060306800F00700B84201D0012083
:1057A000E5E72878400705D56068E96820F4E060FF
:1057B000084360602878000706D56068296920F4EE
:1057C000605040EAC100606000F038F86168084A43
:1057D000C1F30311515CC8400649086006480068DF
:1057E000FFF7D6F90020C2E7002002400010024077
:1057F000D29F00082C0000203400002004480549F6
:1058000000684968044AC1F30221515CC8407047EE
:105810002C00002000100240E29F000804480549C7
:1058200000684968044AC1F3C221515CC84070470E
:105830002C00002000100240E29F00080E4A516830
:105840000E4801F00C03042B11D0082B0FD10C488B
:10585000C1F38343C903C05C0AD55168084AC1F348
:105860004041921E515C054A5043B0FBF1F0704735
:1058700004494843704700000010024000127A00BB
:10588000EC9F000800093D002DE9F84F040070D09E
:105890002078C04DC00749D06868C0F38100012856
:1058A00007D06868C0F38100022809D16868C00386
:1058B00006D52868800339D560680028E7D035E030
:1058C0006068B0F5803F0BD010B1B0F5A02F11D0BB
:1058D000286820F480302860286820F4802002E0C6
:1058E000286840F480302860606890B1FFF730F994
:1058F00006460AE0286840F480202860F0E700BFF0
:10590000FFF726F9801B642873D828688003F7D531
:105910000CE0FFF71DF9064605E000BFFFF718F998
:10592000801B6428F0D828688003F7D420789A4E2A
:1059300080074FF001094FF0000839D5686810F072
:105940000C0F07D06868C0F38100022809D168688D
:10595000C00306D42868800714D52069012808D11F
:1059600010E02069B0B1C6F80090FFF7F1F80746E3
:1059700005E00AE1FFF7ECF8C01B0228C4D828684C
:105980008007F7D52868616920F0F80040EAC10077
:1059900028600DE0C6F80080FFF7DAF8074604E05B
:1059A000FFF7D6F8C01B022823D828688007F7D451
:1059B000207800072CD57948A169D9B1C0F80090AA
:1059C000FFF7C6F8074604E0FFF7C2F8C01B02283D
:1059D0000FD8686A8007F7D571484FF4FA5100680C
:1059E000B0FBF1F0009000BF0098411E0091FAD288
:1059F0000EE080E0C0F80080FFF7AAF8074604E058
:105A0000FFF7A6F8C01B022875D8686A8007F7D48C
:105A10002078400760D5E8690027C00008D4E8690D
:105A200040F08050E861E869012700F08050009064
:105A30005C480168C90513D40168834641F480714C
:105A40000160FFF785F8824606E000BFFFF780F8A7
:105A5000A0EB0A0064284ED8DBF80000C005F5D59D
:105A6000E06801280AD008B1052813D0286A20F080
:105A700001002862286A20F0040002E0286A40F051
:105A800001002862E06841F2883B98B1FFF760F8B6
:105A900082460BE0286A40F004002862EEE700BF6F
:105AA000FFF756F8A0EB0A0159455AD8286A800733
:105AB000F6D50CE0FFF74CF8824605E0FFF748F812
:105AC000A0EB0A0159454CD8286A8007F6D41FB1CB
:105AD000E86920F08050E861E06988B36968C1F343
:105AE0008101022944D00228C6F8608004D0FFF763
:105AF0002FF8044638E034E0FFF72AF8074604E0C0
:105B0000FFF726F8C01B02282BD828688001F7D49D
:105B1000206AB0F5803F05D16868A16820F40030A4
:105B200008436860D4E908010843696821F47411E6
:105B300008436860C6F86090FFF70AF8044606E07C
:105B400025E000BFFFF704F8001B022809D82868E9
:105B50008001F7D51BE000BFFEF7FAFF001B02280B
:105B600002D90320BDE8F88F28688001F4D40EE044
:105B70000128F7D06868226A00F48031914204D18C
:105B8000616A00F47010884201D00120EAE7002029
:105B9000E8E7000000100240000042428004424258
:105BA0002C0000200070004010B5401EB0F1807F36
:105BB00001D3012010BD4FF0E02460610F21601778
:105BC00003F071FC0020A06107202061002010BDBF
:105BD0007047704710B590F83C20012A22D001226E
:105BE00080F83C20CA688C6822F4407222434C68DA
:105BF00022F4806222430C6822F4006222430C6982
:105C000022F4805222434C6922F400522243C96993
:105C1000002322F480420A4301684A6480F83C3041
:105C2000002010BD022010BD70B590F83C20012A64
:105C300026D0012480F83C40022280F83D200368F1
:105C40005A689D6822F070060A6832435A600D4B0C
:105C500002689A4208D0B2F1804F05D00A4B9A42AE
:105C600002D00A4B9A4204D1496825F080031943B7
:105C7000916080F83D40002180F83C10084670BDDE
:105C8000022070BD002C01400004004000080040CC
:105C900010B5040003D094F83D0010B107E00120D6
:105CA00010BD002084F83C00204600F01FF80220C0
:105CB00084F83D00211D206801F05CFC012084F87F
:105CC000460084F83E0084F83F0084F8400084F8E1
:105CD000410084F8420084F8430084F8440084F8CA
:105CE000450084F83D00002010BD000008B51E4AA4
:105CF00001681E4891420ED1816941F400618161C1
:105D00008069002200F40060009011461920FEF71F
:105D10008BFF192013E0B1F1804F14D0144A914247
:105D200020D1C16941F00401C161C069002200F0C5
:105D30000400009011461E20FEF776FF1E20BDE8ED
:105D40000840FEF763BFC16941F00101C161C0694C
:105D5000002200F00100009011461C20FEF764FFB5
:105D60001C20ECE708BD0000002C014000100240A0
:105D70000008004090F83D10012901D00120704733
:105D8000022180F83D100168CA6842F00102CA6031
:105D900000680B49884208D0B0F1804F05D009490E
:105DA000884202D00849884204D1816801F0070185
:105DB000062903D0016841F001010160002070470D
:105DC000002C0140000400400008004070B504466B
:105DD00090F83C000025012817D0012684F83C608B
:105DE000022084F83D002068826822F0770222F4C5
:105DF0007F4282600868502838D00DDC20284FD0C0
:105E000005DC90B3102811D14AE0022070BD302883
:105E100046D040280AD13BE060282FD070280DD012
:105E2000B0F5805F03D0B0F5005F12D0012584F893
:105E30003D60002084F83C00284670BDCB68D1E965
:105E40000121206801F0D2FB2068816841F07701D0
:105E500009E0CB68D1E90121206801F0C7FB206887
:105E6000816841F480418160E1E719E0CA684968CE
:105E7000206801F06FFC5021206806E0CA6849687C
:105E8000206801F078FC6021206801F0B9FBCEE7C2
:105E9000CA684968206801F05DFC40212068F4E789
:105EA000226801461046F0E770472DE9F0410446AC
:105EB0000068C66805694FF00007A90713D5B10748
:105EC00011D5F91E016101202077206880698007C3
:105ED000204602D0FFF7E8FF04E000F0A7F82046D4
:105EE00000F0D3F82777680716D5700714D5216816
:105EF0006FF004000861022020772068806910F4A8
:105F0000407F204602D0FFF7CFFF04E000F08EF87C
:105F1000204600F0BAF82777280715D5300713D5A3
:105F200021686FF008000861042020772068C069AC
:105F30008007204602D0FFF7B7FF04E000F076F8B4
:105F4000204600F0A2F82777E80616D5F00614D50B
:105F500021686FF010000861082020772068C06970
:105F600010F4407F204602D0FFF79EFF04E000F0CF
:105F70005DF8204600F089F82777E80708D0F00799
:105F800006D021686FF001000861204600F07EF81D
:105F9000280608D5300606D521686FF08000086114
:105FA0002046FFF715FE680608D5700606D521685D
:105FB0006FF040000861204600F092F8A8060AD56C
:105FC000B00608D521686FF0200008612046BDE8C2
:105FD000F041FFF7FEBDBDE8F08170B5044690F8D2
:105FE0003C00002501280FD0012084F83C006AB154
:105FF000042A0FD0082A11D00C2A13D00125002022
:1060000084F83C00284670BD022070BD206801F075
:10601000FFFAF4E7206801F023FBF0E7206801F0C5
:106020004BFBECE7206801F073FBE8E7704710B525
:10603000040003D094F83D0010B107E0012010BD2A
:10604000002084F83C00204600F01EF8022084F86E
:106050003D00211D206801F08DFA012084F84600E2
:1060600084F83E0084F83F0084F8400084F8410042
:1060700084F8420084F8430084F8440084F8450022
:1060800084F83D00002010BD7047704710B50446ED
:106090000068B0F1804F09D10C490868401C0860C5
:1060A0000A2801D10020086003F00EF80849206892
:1060B00088420AD1074803F09FF8074803F09CF88C
:1060C000BDE81040054803F097B810BD2800002037
:1060D00000080040B00100206802002020030020DA
:1060E000704770477047704770477047F8B5016850
:1060F00004460868CA684B6910F00F0F4FF000059E
:1061000056D003F0010602F49077374361D0C107FF
:1061100005D0D10503D5616C41F0010161644107EF
:1061200005D5D90703D0616C41F002016164810794
:1061300005D5D90703D0616C41F004016164010702
:1061400007D502F02001314303D0616C41F0080112
:106150006164616C00293BD0800604D5900602D5AD
:10616000204601F06DFB20684069616CC0F380102F
:10617000090700D440B3204601F015FB20684069B0
:1061800040061ED52068143050E8001F21F0400161
:1061900040E80012002AF5D1E06B90B16E494163EE
:1061A000E06BFEF7D5FA002812D0E06B416BCEE031
:1061B00083060ED593060CD52046BDE8F84001F0C5
:1061C0003FBB2046A16DC2E0A16D204688476564B3
:1061D000F8BD266B2023012E7ED1C6067CD5D606BF
:1061E0007AD508684868009048694FF00206400672
:1061F00040D5E16B086840680004000CE8D0A28D2F
:106200008242E5D9E085886920282DD021680C31AB
:1062100051E8000F20F4807041E80002002AF5D117
:106220002068143050E8001F21F0010140E80012FE
:10623000002AF5D12168143151E8000F20F0400008
:1062400041E80002002AF5D184F842302563206835
:106250000C3050E8001F21F0100140E80012002A25
:10626000F5D1E06BFEF750FA6663A08DE18D401A20
:1062700081B22AE0A08DE18D401A81B2E08D002824
:10628000A6D00029A4D020680C3050E8002F22F4BA
:10629000907240E80027002FF5D12068143050E8B4
:1062A000002F22F0010240E80027002FF5D184F8EA
:1062B0004230256320680C3050E8002F22F0100295
:1062C00040E80023002BF5D16663E26E01B0204662
:1062D000BDE8F0401047FFE705062CD515062AD586
:1062E00094F8410021287FF473AFA068B0F5805F77
:1062F00001D12069B0B1206A411C21622168007877
:106300004860E08C401E0004000CE084EBD1206863
:10631000C16821F08001C1602068C16841F040017E
:10632000C160F8BD206A0088C0F308004860206A98
:10633000801C2062E5E74006F3D55006F1D5CA6817
:10634000204622F04002CA6084F84130E16C01B07E
:10635000BDE8F040084700009B77000870B50400D6
:1063600004D094F84100002510B10DE0012070BD6B
:1063700084F84050204601F03DFA206F08B91448D7
:106380002067014620468847242084F84100206881
:10639000C16821F40051C160204601F0B3FA2068C1
:1063A000016921F4904101612068416921F02A01CD
:1063B00041612068C16841F40051C16065642020DA
:1063C00084F8410084F842006563002070BD00003D
:1063D000D563000830B585B0002400940194029480
:1063E00003940068184988422CD11848816941F407
:1063F00080418161816901F480410491816941F0AA
:10640000040181618069124D00F0040004904FF492
:1064100000700090022001900320039069462846F6
:10642000FEF794FA2815CDE900046946284602943F
:10643000FEF78CFA002211462520FEF7F5FB2520F9
:10644000FEF7E4FB05B030BD00380140001002400B
:106450000008014090F84230202B01D00220704704
:1064600021B11AB10023036301F0A8BA01207047DB
:10647000054910B5202201F12000FFF7EBFF0020B5
:10648000401C1F28FCDB10BD300600207047704701
:106490007047FEE720481F4A0021C0E92A121F4A20
:1064A0000023C0E92C121E4AC0E90A121D4A01212C
:1064B000E0E90E321A461C4B8260C0E903311648EF
:1064C0001A4BB8300022C0E92A23144BC0E92C2310
:1064D0001346174A8164C0E90A32164A0021E0E9EE
:1064E0000E12154AC0E9021214480A4AC0E92A12DB
:1064F0000A4AC0E92C12074A5242C0E90A12491E50
:10650000816400214FF08042E0E90E125242C0E95E
:106510000212704700001040B001002000007940D6
:1065200000406F4000606F4000606FC0000014408A
:1065300000C0704000D0704000D070C02003002028
:10654000F0B500230A24302537261F4611E000BF8E
:10655000B4EB107F02D905EB107C01E006EB107C58
:1065600001F813C001EB430C00015B1C8CF80170B7
:10657000DBB29342ECD3F0BD2DE9F04F85B000249F
:1065800036480094019402940394816941F010010B
:106590008161816901F010010491816941F020015C
:1065A0008161816901F020010491816941F0040158
:1065B0008161816901F004010491816941F0080160
:1065C00081618069DFF8989000F008004FF4C045C1
:1065D0000490002229464846FEF7B5FADFF884A069
:1065E00040F2FF17002239465046FEF7ACFADFF8BA
:1065F00078B048F60348002241465846FEF7A3FA11
:106600000095022601250396CDE9015469464846C6
:10661000FEF79CF900970396CDE901546946504670
:10662000FEF794F9CDF800800396CDE90154694650
:106630005846FEF78BF9E803CDE900046946504659
:106640000294FEF783F91820CDE900046946584604
:106650000294FEF77BF905B0BDE8F08F0010024010
:106660000010014000080140000C014010B596B038
:1066700000240F9410941194129413941C216846D2
:106680001494FDF7D4FD202107A8FDF7D0FD344870
:106690003249016041F61F41C0E9011440F2E7317F
:1066A000C0E903148021C0E90541FFF7F1FA08B100
:1066B000FDF778FF4FF480500F900FA92848FFF79F
:1066C00085FB08B1FDF76EFF2548FFF7B0FC08B168
:1066D000FDF768FF139413A921481494FFF7A4FA57
:1066E00008B1FDF75FFF00940194029403940494B1
:1066F0000594002269461A480694FFF76EFC08B11B
:10670000FDF750FF042269461548FFF766FC08B103
:10671000FDF748FF082269461148FFF75EFC08B103
:10672000FDF740FF0C2269460D48FFF756FC08B103
:10673000FDF738FF0794089409944FF400500A9429
:10674000CDE90B4007A906480E94FFF743FA00284D
:1067500001D0FDF727FF16B010BD0000002C01404E
:106760005805002010B58EB00024079408940994B1
:106770000A940B941C2168460C94FDF758FD294897
:106780004FF08041016040F6C901C0E9011440F2B8
:10679000E731C0E9031480218161FFF779FA08B17C
:1067A000FDF700FF4FF48050079007A91D48FFF741
:1067B0000DFB08B1FDF7F6FE1A48FFF738FC08B1EB
:1067C000FDF7F0FE0B940BA916480C94FFF72CFA7A
:1067D00008B1FDF7E7FE0094019402940022694697
:1067E00010480494FFF7F9FB08B1FDF7DBFE042223
:1067F00069460C48FFF7F1FB08B1FDF7D3FE08220C
:1068000069460848FFF7E9FB08B1FDF7CBFE0C220B
:1068100069460448FFF7E1FB002801D0FDF7C2FEFE
:106820000EB010BDA005002010B586B0002416489B
:106830000094019402940394049412490594016015
:106840008F21C0E901143121C0E903148461FFF7ED
:106850001FFA08B1FDF7A6FE4FF48050009069467C
:106860000948FFF7B3FA08B1FDF79CFE049404A9A8
:1068700005480594FFF7D8F9002801D0FDF792FEEE
:1068800006B010BD00080040E80500200C4810B517
:106890000A4901604FF416514160002181600C22C9
:1068A000C160C0E904128161C161FFF757FD002892
:1068B00003D0BDE81040FDF775BE10BD00380140A3
:1068C0005006002010B500220F49104801F064FB6B
:1068D00008B1FDF767FE0E490C4801F040FD08B114
:1068E000FDF760FE0B49094801F06EF908B1FDF7AC
:1068F00059FE064801F088FD002803D0BDE810408D
:10690000FDF750BE10BD00003C0000202007002015
:10691000780100208C000020FEE770B5044690F856
:106920008C0001282CD04FF0FF31204600F0FCFCF9
:10693000D4F89C00401CC4F89C00D4F8A0108842F5
:106940001DD100252046C4F89C50FDF7B7FE204617
:1069500000F014FA002812D1204602F009FC20466B
:1069600002F020FCD4F89400401CC4F89400D4F841
:106970009010884203D30120C4F89450606670BD23
:106980000121D2E7FEE72DE9F84F044640F68F7B60
:1069900048F60F794FF480684FF0000ABDE1B0F877
:1069A000441011F00F0539D030F8256031047ED540
:1069B00030F8251001EA0B0141F0800120F8251084
:1069C00005EB850004EBC00797F85C0107F5A87795
:1069D00000286DD0F87802286BD03978226832F818
:1069E000210048F68F73184048F2C003184322F87C
:1069F00021003978206830F82120B0F85030520456
:106A00007DD5022202EBC1015A1808EB4201415A1E
:106A10008905890D009173D03A89DDE0C9062BD430
:106A2000018801EA090141F400410180206804F174
:106A30001005B0F85030217C022202EBC1015A1837
:106A400008EB4201405AC0F30900E062616A084461
:106A5000606200212046FEF738F9607B00289DD057
:106A6000A86900289AD1607B216840F08000A1F8D5
:106A70004C0084F80DA050E1018804F5A8750A05C2
:106A800021D5B0F850202B78062101EBC3010A4430
:106A900008EB4201405A04F52671C0F30903EB618B
:106AA000EA88206802F0DEFA2068018802E0AEE0A1
:106AB0006EE07EE001EA0B0141F08001018020469A
:106AC000FEF75EFD29E10904D5D5018801EA0B0135
:106AD00041F0800101802068B0F850202B78062119
:106AE00001EBC3010A4408EB4201405A83059B0DA8
:106AF000EB6110D0696971B1EA88206801E05FE05C
:106B00005DE002F0AFFAE969686908446861002154
:106B10002046FEF7E3F8216808880205ABD4C0F3ED
:106B200001300328A7D0B1F850000844B0F80C1485
:106B3000C1F30901A0F80C142A6900F20C403E2AA6
:106B400009D95109D20600D1491E02884FF40043E9
:106B500043EA812109E0B2B15108D20700D0491CB3
:106B600002884FF6FF7303EA81210A4302802168FD
:106B700008884BF68F72104080F4405048F2800233
:106B800010430880C9E0018841F400410180EEE72C
:106B90002068B0F850203B78062101EBC3010A447D
:106BA00008EB4201415A8905890D009118D0FA88F5
:106BB00012E0324639462046FEF7ECF800900FE02E
:106BC000062202EBC1015A1808EB4201415A89051D
:106BD000890D009104D07A897969009B02F042FA0C
:106BE000F86900990844F861796900980844786167
:106BF000B86918B139690098814204D939782046BA
:106C0000FEF76CF803E03946206801F0A1FF30067A
:106C10002ED505EB850004EBC001206830F8252057
:106C200002EA090242F4004220F82520C87C103113
:106C300001281ED0F0056CD42068B0F850300D78D3
:106C4000022202EBC5021A4408EB4202805A8A690A
:106C5000C0F30900824255D9121A8A6154D04A6998
:106C600002444A61CA691044C861206801F070FF9B
:106C700053E0C1F818A0087B524608B3700620D52F
:106C8000487810B1012812D03AE02068B0F85020BE
:106C900010440A7800EB0210B0F80424C2F3090291
:106CA000A0F80424B0F8042442F4004206E020686E
:106CB000B0F8503018440B7800EB0310A0F804240F
:106CC0001EE04B78206813B1012B11D018E0B0F80A
:106CD000502010440A7800EB0210B0F80C24C2F3E4
:106CE0000902A0F80C24B0F80C2442F4004205E09C
:106CF000B0F8503018440B7800EB0310A0F80C24C7
:106D0000097802E0C1F818A0E9B22046FDF7DDFFDE
:106D100003E032462046FEF7B0F82068B0F8441091
:106D200009043FF53CAE0020BDE8F88F7047000035
:106D300070B504460D4900200D4D8C4203D1082149
:106D40002846FDF7F3FE0949B8318C4203D11021E2
:106D50002846FDF7EBFE07498C4206D1BDE870409E
:106D60004FF400410448FDF7E1BE70BDB0010020C2
:106D7000000C0140200300200008014070B50446CB
:106D80000D4900208C4204D14FF400610B48FDF7FF
:106D9000CDFE09490A4DB8318C4203D180212846E5
:106DA000FDF7C4FE07498C4205D12846BDE8704076
:106DB0000821FDF7BBBE70BDB0010020000C0140F2
:106DC00000080140200300202DE9F05F944A934C15
:106DD0008F4D10688F4B401C10600022227095F878
:106DE0008C606670A070E270B5F890002071000AA7
:106DF0006071B5F89400A071000AE071227295F8F4
:106E00007C0095F8886095F8787000EBC60095F8DE
:106E100074609846B60006EB470630446072184628
:106E200093F87C3090F888607B4903EBC60310F838
:106E3000746F8B460779B60006EB47063344A3729E
:106E400091F87C3091F8886003EBC60311F8746FF9
:106E50000F79B60006EB47063344E37295F88430A9
:106E6000237398F8840060739BF884101844A1730E
:106E70000844E0732274D5E90801134602F0D2FDFC
:106E800002D24FF03F4001E04FF07C5003F030F869
:106E900006460F46D5E90801AA460022614B02F0DA
:106EA000FDFD32463B4602F03DFB02F047FD5E49E8
:106EB0004646002208606074010AA174010CE17466
:106EC000000E2075D6E90801134602F0ABFD02D290
:106ED0004FF03F4001E04FF07C5003F009F80546C9
:106EE0000F46D6E90801B14600224E4B02F0D6FD0E
:106EF0002A463B4602F016FB02F020FD4B494FF0BC
:106F000000085D4608606075010AA175010CE17515
:106F100084F81880000E6076D5E9080142464346A1
:106F200002F080FD02D24FF03F4001E04FF07C5074
:106F300002F0DEFF06460F46D5E908010022394B74
:106F400002F0ACFD32463B4602F0ECFA02F0F6FCF1
:106F500037494E46086004F81A0F010A6170010CA7
:106F6000A170000EE070B9F890002071000A607105
:106F700084F80680B9F89400E071000A2072B5F830
:106F800090006072000AA072B5F89400E072000AE6
:106F9000207396F88C00607384F80E8095F88C004E
:106FA000E073D5E902016E3602F0C8FC207495F852
:106FB0008D0060749AF86410A17416F80A1CE174CC
:106FC00095F8641021759AF888006075B07EE075B8
:106FD00095F88800207655206076A0760025284612
:106FE0001A3C215C401C0D443728FADB4FF4005159
:106FF0001048FDF7A0FD84F8375038210748FDF709
:1070000079FABDE8F05F38210448FDF741BA000085
:10701000B00100206802002020030020C8060020E4
:10702000000000200000594004000020080000205B
:107030000C00002000100140704700002DE9F05FB7
:107040000446407FAA287DD1A07FAA287AD1207843
:1070500000210125DFF8BC92DFF8BCA2DFF8BC827A
:10706000AF4EB04FA4286ED01BDC06286CD006DCD7
:10707000062867D2DFE800F066664B4D536F09289B
:107080007ED007DC07287CD008285BD1FD66C8F8D5
:107090006C50C5E0A22875D0A32853D1C8F86C5015
:1070A00038E0B5286FD026DCB2286DD00EDCA528DC
:1070B0006BD0A62846D1C8F87410C8F87810C8F864
:1070C0007C10C8F86450C8F8881023E0B3286FD04B
:1070D000B42837D160782179A27800EB0160E1789B
:1070E000090401EB0221084402F085FC4A4653469C
:1070F00002F0D4FCAEE0B62870D0C2286FD0C7280A
:107100006ED0F0281ED1BDE8F05FFDF75BB9BD661B
:1071100000E0FD660123082219460320F3E06078B1
:107120002179A27800EB0160E178090401EB0221EA
:10713000084402F060FC4A46534602F0AFFCC7E93F
:10714000020102E0E3E034E028E0D7F884000428FC
:10715000E0D13D67DEE760782179A27800EB01603D
:10716000E178090401EB0221084402F044FC4A469C
:10717000534602F093FCC7E90C0102460B4605E0BA
:10718000BAE0B5E011E04DE048E02AE0D7E90801B7
:1071900002F0C8F93D67C7E90201BBE77967B96743
:1071A000F9677D66C7F88810B4E7C8F86850B1E79A
:1071B00036E060782179A27800EB0160E17809047B
:1071C00001EB0221084402F016FC4A46534602F045
:1071D00065FCC8E90201C8F870509BE73EE044E056
:1071E00081E060782179A27800EB0160E178090400
:1071F00001EB0221084402F0FEFB4A46534602F02E
:107200004DFC44460246C4E90C010B46D4E9080192
:1072100002F088F92567C4E902017BE7B56679E7E2
:10722000F56677E760782179A27800EB0160E17874
:10723000090401EB0221084402F0DDFB4A465346F3
:1072400002F02CFCC6E90C0102460B46D6E9080107
:1072500002F068F93567C6E902015BE77167B1675B
:10726000F1677566C6F8881054E760782179A278CE
:1072700000EB0160E178090401EB0221084402F00F
:10728000BAFBCB464A46534602F008FCC7E9020166
:107290006079217AA27900EB0160E179B9460904AD
:1072A00001EB0221084402F0A6FB5A46534602F0C5
:1072B000F5FB4746C7E90201607A217BA27A00EB21
:1072C0000160E17A090401EB0221084402F093FB1A
:1072D0005A46534602F0E2FBC6E90201C9F8705073
:1072E0003D67356716E77D66C8F86450756611E737
:1072F000BD66C8F8685091E700F04AF801232022E3
:1073000019464FF6FF70BDE8F05FFDF71DB8BDE808
:10731000F09F00007B14AE47E17A843F68020020B2
:1073200020030020B001002070B5054614480C462B
:10733000854207D11348621C4FF4806100D00122BE
:10734000FDF701FC0E48104EB830854206D1601C96
:1073500010D0012240213046FDF7F5FB0B48854255
:107360000CD1012C08D001223046BDE87040042128
:10737000FDF7E9BB0022EDE70022F5E770BD000054
:10738000B0010020000C0140000801402003002053
:107390002DE9F0434C4D85B0D5E90A01D5E9082324
:1073A00002F0BCFC05F1B806C5E90A01D6E90A01FC
:1073B000D6E9082302F0B2FC05F5B874C6E90A0163
:1073C000D4E90A01D4E9082302F0A8FCC4E90A01BF
:1073D000FDF7A8FA0020049000903C4F0120CDE971
:1073E000027004A96846FDF7FFF94FF6FF7928B14E
:1073F0000123202219464846FCF7A6FFDFF8D0807B
:10740000D5E90A010022434602F048FB02F096FA51
:107410000546C3172A4639460220FDF743FA28B12C
:107420000123202219464846FCF78EFFD6E90A01BF
:107430000022434602F032FB02F080FA064623495E
:10744000C3173246091D0220FDF72CFA28B101238B
:10745000202219464846FCF777FFD4E90A010022AA
:10746000434602F01BFB02F069FA04461749C317B2
:10747000224608310220FDF715FA28B10123202207
:1074800019464846FCF760FFFDF702FA3868A84243
:1074900005D00123202219464846FCF755FF78689D
:1074A000B04205D00123202219464846FCF74CFF84
:1074B000B868A04205D00123202219464846FCF7AF
:1074C00043FF05B0BDE8F083B00100200080000854
:1074D00000005940FDF742BB30B593B02821684603
:1074E000FCF7A5FE14210AA8FCF7A1FE0024012048
:1074F0000F9410941194010412948DE813000490D9
:107500000005CDE90810022507956846FEF7BCF98D
:1075100008B172B6FEE70F20CDE90A054FF480608E
:10752000CDE90C4001210AA80E94FEF7D1F808B16C
:1075300072B6FEE710200F90800412900FA8FEF79D
:1075400051F8002801D072B6FEE713B030BD704785
:107550000148FEF7AABC0000580500200148FEF7CC
:10756000A4BC0000A00500200148FEF79EBC00005E
:10757000E8050020F0B50268194B1A4C1A4D4FF07F
:107580008047984205D0B84203D0A04201D0A8421B
:1075900003D122F070064A683243984205D0B842BF
:1075A00003D0A04201D0A84203D122F44074CA689B
:1075B00022434C6922F08002224302608A68C26240
:1075C0000A688262984201D109690163012141611F
:1075D0000169C90703D0016921F001010161F0BD12
:1075E000002C0140000400400008004010B58468F1
:1075F00042EA032224F47F440A432243826010BDFE
:10760000826822F070020A4342F0070181607047ED
:1076100030B5036A026A22F001020262426884699C
:1076200024F073050C682C4323F002058B682B4370
:107630000A4DA8420BD123F00805CB6822F4407212
:107640002B434D6923F0040315438A692A434260A2
:10765000846149684163036230BD0000002C014031
:1076600030B5026A036A23F0100303624368846939
:107670000D6824F4E64444EA05248D6822F02002D3
:1076800042EA05120B4DA8420ED1CD6822F08002CD
:1076900042EA05124D6923F4406343EA85038D698C
:1076A00022F0400243EA85034360846149688163B4
:1076B000026230BD002C014030B5036A026A22F438
:1076C000807202624268C46923F4007324F0730577
:1076D0000C682C438D6843EA05230C4DA8420ED15B
:1076E000CD6823F4006343EA05234D6922F4405238
:1076F00042EA05128D6923F4806342EA0512426072
:10770000C4614968C163036230BD0000002C0140C0
:1077100030B5046A026A22F4805202624268C36988
:107720000D6823F4E64343EA05238D6824F40054EE
:1077300044EA0534064DA84204D14D6922F4804242
:1077400042EA85124260C36149680164046230BD47
:10775000002C014010B5036A046A24F0010404629D
:10776000846924F0F00444EA021423F00A020A4374
:107770008461026210BD10B5036A046A24F010042B
:107780000462846923F0A00324F4704444EA0232C2
:1077900043EA01118261016210BD406A0021C18586
:1077A000C184816D084701680C3151E8002F22F433
:1077B000907241E80023002BF5D10168143151E8A3
:1077C000002F22F0010241E80023002BF5D1016BCC
:1077D000012909D101680C3151E8002F22F0100273
:1077E00041E80023002BF5D1202180F84210002130
:1077F00001637047094981640949C1640949016508
:1078000009494165094981650949C1650949016617
:10781000094941660949C166704700009164000842
:107820008F6400088D64000871640008EB60000834
:10783000E5600008E9600008E7600008E360000810
:1078400008B590F84210222901D0022008BD8268B4
:107850004FF480539A4201D1016921B1816A9A4261
:107860001BD04AB10AE00268816A5268C2F308027A
:107870000A80816A891C08E0026972B10268526854
:1078800002F07F020A70816A491C8162C18D491E23
:107890000904090CC18503D01BE002685268F1E7B6
:1078A0000168CA6822F02002CA600168CA6822F42E
:1078B0008072CA6001684A6922F001024A6120218F
:1078C00080F8421000214163026B012A03D0416D10
:1078D0008847002008BD016301680C3151E8002F82
:1078E00022F0100241E80023002BF5D101680A685C
:1078F000D20602D50A6849680091C26E818D904710
:10790000E7E7000070B5044600680169E26821F409
:107910004051114301612169A0680843616908432E
:107920002168CA6841F20C639A430243CA60206826
:107930004169A26921F44071114341611E492068E7
:10794000884202D1FDF76AFF01E0FDF757FF00EB27
:10795000C00101EB0012606864218000B2FBF0F30B
:10796000B3FBF1F36FF018067343B2FBF0F5B2FB13
:10797000F0F605EB8305322303EB0515B5FBF1F5B6
:10798000B6FBF1F605F0F00505EB0615B2FBF0F6D7
:10799000B2FBF0F0B0FBF1F06FF01802504306EBD1
:1079A000800003EB0010B0FBF1F0216800F00F0045
:1079B0002844886070BD00000038014081628285E3
:1079C000C28500214164222180F84210016921B161
:1079D0000168CA6842F48072CA6001684A6942F06C
:1079E00001024A610068C16841F02001C1600020C5
:1079F000704700000148FEF779BB000050060020E8
:107A00002DE9F041D0F8C032D0F8B822CAB101EB6C
:107A1000810500EB85040026E7693FB103EBC50350
:107A20001B6AB7FBF3F503FB157323B1C2F81462AD
:107A30000020BDE8F08100231A46E66100F072FCE8
:107A4000F6E70220F5E770B50546D0F8B84200F039
:107A50006EFBC4F80C02D5F8B80248B1D5F8BC12D8
:107A6000D4F80402CA6804F503719047002070BD81
:107A7000022070BD70B504460026812100F0AAFAEC
:107A8000002501212046E56200F0A4FA822120466B
:107A9000C4F86C5100F09EFA2564D4F8B80248B1DD
:107AA000D4F8BC0204F52E7440688047206800F0CA
:107AB00008FE2560304670BD10B5D0E9AE4159B121
:107AC00094F80002FF2807D08B6894F80122214621
:107AD0009847FF2084F80002002010BD0A21018091
:107AE00000487047A00000204321018000487047F3
:107AF000F00000204321018000487047AC000020C6
:107B00004321018000487047340100202DE9F041F5
:107B100004460026007C4FF40077012590B34023F3
:107B200002228121204600F056FB4023E56202221A
:107B30000121204600F04FFB08230322822120462A
:107B4000C4F86C5100F047FB4FF40770256400F057
:107B5000B9FDC4F8B802F8B10546D4F8BC02006813
:107B600080470020C5F81402C5F81802207CD5F81B
:107B7000042298B140230121204600F038FB304612
:107B8000BDE8F081FFE73B4602228121204600F05C
:107B900022FB3B46E562CAE70126F0E73B46EAE7FF
:107BA00010B5D0F8B81269B1027C002AD1F80422CD
:107BB00005D04023012100F01AFB002010BD4FF436
:107BC0000073F7E7022010BD02460220002902D010
:107BD0000020C2F8BC127047D0F8B802C0F80412F6
:107BE00000207047D0F8B802C0F81022C0F8081280
:107BF000002070472DE9FC410546D0F8B8720020FE
:107C00008DF80000ADF80400064608780C4610F028
:107C1000600121D020293BD1E288AAB1000660781A
:107C200007D5D5F8BC128B6839469847E2883946A3
:107C300026E087F80002A07987F80102E288394639
:107C4000284600F06AF828E0D5F8BC1260780022D7
:107C50008B682146984720E0607820B10A2809D037
:107C60000B2815D110E095F89C02032810D10222B0
:107C700001A905E095F89C02032809D10122694673
:107C8000284600F064F808E095F89C02032804D028
:107C90002146284600F036F802263046BDE8FC8131
:107CA00010B5D0F8B812A1B1D1F814220AB1012050
:107CB00010BD0122C1F81422D1F810220263B1F8DC
:107CC000102293B2D1F80822812100F02BFB002072
:107CD00010BD022010BD10B5D0F8B42252689047F4
:107CE000002010BD134610B50A46002100F07FFAAF
:107CF000002010BD134610B50A46002100F012FB0B
:107D0000002010BD10B50446802100F0F0FA204696
:107D1000BDE81040002100F0EABA10B50323C0F816
:107D20005C21C0F89432C0F8602113460A46002155
:107D300000F05DFA002010BD10B505210023C0F849
:107D400094121A46194600F052FA002010BD10B5E0
:107D50000223C261C0F89432026213460A4600212F
:107D600000F0E0FA002010BD10B504210023C0F897
:107D700094121A46194600F0D5FA002010BD0000F2
:107D800010B50A46024903A000F0D6F8004810BD1D
:107D9000E409002043444320436F6E666967000096
:107DA00012200880004870475C00002010B50A4689
:107DB000024903A000F0C0F8004810BDE40900200B
:107DC00043444320496E7465726661636500000038
:107DD00004200880004870475800002010B50A466B
:107DE000024903A000F0A8F8004810BDE4090020F3
:107DF00053544D6963726F656C656374726F6E691D
:107E00006373000010B50A46024903A000F094F81D
:107E1000004810BDE4090020466172616E64204391
:107E20004E4320506F72740010B51A20088040181D
:107E300009D008220549FEF783FB044904221031CA
:107E40002046FEF77DFB0148801E10BD7200002019
:107E5000F8B504460020ADF8000048880D46010A38
:107E6000082948D2DFE801F04704091747473C4595
:107E7000D4F8B012207C0A6819E0207C0226002881
:107E8000D4F8B40205D0C16A6846884701464670F6
:107E90003EE0816AF8E7C0B206282CD2DFE800F0A5
:107EA000030A1014181CD4F8B002426805E06946B1
:107EB00090471CE0D4F8B0028268E2B1207CF6E77B
:107EC000D4F8B002C268F8E7D4F8B0020269F4E767
:107ED000D4F8B0024269F0E7D4F8B0028269ECE766
:107EE000207C40B9D4F8B402416B6846884701460B
:107EF0000EE0207C20B129462046FFF703FFF8BDA5
:107F0000D4F8B402016B68468847014607204870E0
:107F1000BDF8000048B1EA8852B1824200D9024659
:107F2000ADF800202046FFF712FFE8880028E6D1D0
:107F30002046FFF719FFF8BD70B5002300281ED0BA
:107F40000446002502E06D1CEDB2641C2678002E6C
:107F5000F9D1022404EB450414801278CA545B1C46
:107F60000322CA5400245B1C06E0CA545B1CDAB22C
:107F70008C54521CD3B2401C0278002AF5D170BD3B
:107F800001004FF0000004D0012901D0022901D0E6
:107F9000022070470120704710B580B1D0F8B4328C
:107FA00013B10023C0F8B43209B1C0F8B0120121F6
:107FB00080F89C12027000F0BFF8002010BD022073
:107FC00010BD10B5D0F8C002FCF7B7FEBDE81040F8
:107FD000FFF7D6BF10B5D0F8C002FCF789FEBDE8A8
:107FE0001040FFF7CDBF2DE9F0411746044651B1CF
:107FF000D4F8B40242691AB194F89C02032851D013
:108000000220BDE8F081D4F89432002504F1140078
:10801000022B03D0042B3AD0C3B33CE0D0E9036376
:108020009E4207D9F11AC1608AB239462046FFF74D
:1080300061FE12E08068B0FBF3F103FB110199B916
:10804000984211D3D4F8981288420DD200221146DA
:108050002046FFF74FFEC4F8985200231A461946EF
:10806000204600F0C4F816E0D4F8B402C16829B183
:1080700094F89C02032801D120468847802120469D
:1080800000F035F92046FFF757FE04E0FFE78021B6
:10809000204600F02CF994F8A002012804D184F8BD
:1080A000A05201E0204690470020AAE770B515468F
:1080B000044649B1D4F8B40282691AB194F89C021A
:1080C000032830D0022070BDD4F8941204F5AA70B1
:1080D000032902D005291ED027E0D0E903218A42D6
:1080E0000BD9531AC3600846834200D303469AB2A1
:1080F00029462046FFF7F6FD17E0D4F8B4020169DF
:1081000029B194F89C02032801D1204688472046D3
:10811000FFF72AFE09E000200146C4F89402204639
:1081200000F0E5F801E020469047002070BDD0F84F
:10813000C002FDF73EB8000010B504461C481D49BA
:10814000C0F8D442C4F8C0020160082101710221C4
:10815000817100218172C1720173FDF75FF908B16D
:10816000FCF720FA0022D4F8C0021823114604F5C7
:108170003074FCF78BFD5823002280212068FCF727
:1081800085FDC023002281212068FCF77FFD4FF48C
:108190008873002201212068FCF778FD4FF480737A
:1081A000002282212068FCF771FD002010BD000034
:1081B00004160020005C00400A0601F07F01D0F8A0
:1081C000C00201EB810100EBC10001D5807C70474A
:1081D00090F85201704710B51C461346D0F8C00203
:1081E0002246FCF7EFFFBDE81040FFF7C9BE10B50F
:1081F000D0F8C002FDF712F8BDE81040FFF7C0BE8E
:1082000070B50022044640231146FFF7E4FF4026E4
:108210000125C4F864613346002280212046C4F859
:108220005851FFF7D8FF6662A56184F89C52002080
:10823000C4F894026060C4F8A402D4F8B80228B16B
:10824000D4F8B4020021426820469047002070BD57
:1082500090F89C12042903D190F89D1280F89C128A
:108260000020704710B590F89C12032904D1D0F873
:10827000B412C96901B18847002010BD0174002003
:10828000704710B5D0F8C002FDF767F9BDE810409F
:10829000FFF776BE70B5044600F52A70054600F07B
:1082A0004AF80120C4F89402B4F8AE02C4F8980267
:1082B00094F8A80210F01F010AD001290DD002295C
:1082C00010D000F08001204600F011F8002070BDB1
:1082D0002946204600F09DF8F8E72946204600F0A0
:1082E000C9F9F3E72946204600F01CF9EEE710B57E
:1082F000D0F8C002FCF7A9FFBDE81040FFF740BE70
:1083000010B5D0F8C002FDF742F9BDE81040FFF704
:1083100037BE90F89C1280F89D12042180F89C12C0
:108320000020704710B5D0F8C002FCF7C6FFBDE8CA
:108330001040FFF725BE0A7802704A7842708A78AA
:10834000CB7802EB032242800A794B7902EB0322BD
:1083500082808A79C97902EB0121C1807047024687
:10836000002011B1C2F8B41270470220704710B556
:10837000D0F8B42202241AB11268904700B9002440
:10838000204610BD70B50E461E4D897804462970F2
:10839000012931D894F89C0202280BD003280FD071
:1083A00031462046FFF7AEFC29782046BDE87040F4
:1083B000FFF791BCD9B10320616084F89C0209E009
:1083C00071B16068884212D0C1B22046FFF783FCC9
:1083D000297861602046FFF7CAFF02280CD006E02A
:1083E000022084F89C0220466160FFF774FC20465E
:1083F000BDE87040FFF7B8BC31462046BDE870408C
:10840000FFF780BC9C00002010B5FFF779FF00202B
:1084100010BD2DE9F0410A78002612F0600208D064
:10842000202A01D0402A70D1D0F8B4229268904717
:108430006DE04B78002201250A2B66D2DFE803F0BD
:10844000405D6557650805652C29FFF701FD5EE075
:1084500004468888D8B9C888C8B94888802816D200
:1084600000F07F0794F89C02032810D084F89E72D5
:1084700039462046FFF705FF2046FFF775FC1FB180
:10848000022084F89C0242E084F89C523FE020469F
:108490003BE0FFF777FF3AE0CB88012B35D190F82E
:1084A0009C32012B04D0022B02D0032B2DD104E0EF
:1084B0008260012200F1080116E00122011D13E093
:1084C00090F89C22012A03D0022A01D0032A1CD151
:1084D000CA88022A19D1C560D0F8A41209B10321B3
:1084E000C160022200F10C01FFF731FC0FE0498866
:1084F00001290CD1C0F8A45211E090F89C32012B54
:1085000008D0022B06D0032B04D0FFF7FBFB30462C
:10851000BDE8F08149880129F9D1C0F8A422FFF70C
:1085200023FCF4E72DE9F0410A46044610780027C1
:10853000097910F060030AD0202B01D0402B50D1D4
:10854000D4F8B40211468368204698478FE0C0F300
:108550004110012806D05078D0B301282AD0032832
:108560003FD107E0D4F8B402114683682046BDE845
:10857000F041184794F89C02022802D0032872D1D7
:108580000AE071B380296ED02046FFF7B0FE80214B
:108590002046FFF7ACFE6AE0508838B931B1802937
:1085A00004D0D08810B92046FFF7A1FE2046FFF77F
:1085B000DBFB5CE094F89C020228E2D0032852D155
:1085C000508898BB4806F1D02046FFF7FAFCEDE74B
:1085D000FFE794F89C020026022803D0032842D12A
:1085E00012E040E009B180293DD1080601F07F008A
:1085F00000EB800004EB800101D5143101E001F5AE
:10860000AA7102220E602AE0080601F00F0000EBBA
:10861000800004EB80000AD5806920B301F07F0060
:1086200000EB800004EB800514350BE01FE0D0F870
:108630005801C0B101F07F0000EB800004EB800521
:1086400005F5AA7541B1802906D02046FFF7B4FD93
:1086500010B10120286000E02E6002222946204649
:10866000FFF775FB03E011462046FFF74BFB38464A
:10867000BDE8F08170B5054608780C4610F0600042
:1086800003D0202801D0402816D195F89C0201285B
:1086900003D0022801D003280ED1207901280BD85D
:1086A000D5F8B402826828469047E188014306D194
:1086B0002846FFF759FB02E02846FFF723FB00207E
:1086C00070BD704700487047E41300202DE9F04763
:1086D0000C78002630F8243048F68F121340CA7800
:1086E000002A78D0012A7CD0022A02D0032A75D031
:1086F000012648F28002134320F824300D7830F828
:10870000253048F68F7423402B43134320F825303F
:108710000D7B48F2C00948F6BF734CF2800A4BF655
:108720008F77EDB3CD7891F800C0022D30F82C5042
:108730007DD048F68F6805EA0805154320F82C50CF
:10874000B0F8505091F800C0054405EB0C15B1F895
:1087500008C02CF0010CA5F800C4B0F8505091F8F6
:1087600000C0054405EB0C15B1F80AC02CF0010C53
:10877000A5F808C44D78002D7ED00D7830F825C0BE
:108780005FEA4C4C07D530F825C00CEA040C4CEAE3
:108790000A0C20F825C091F800C030F82C5000E0F9
:1087A00022E06D0606D530F82C50254045EA090533
:1087B00020F82C50CC780D78012C30F8254004EAB4
:1087C00003047CD084F02003134320F82530C1E05B
:1087D00001E006E002E043F400738AE743F4C0637B
:1087E00087E743F4806384E74D784DB3B0F8505089
:1087F0000F78054405EB0715CF8827F00107A5F88A
:1088000000740F7830F827506D0606D530F82750E1
:10881000254045EA090520F82750CC78012C07D0DF
:108820000C7830F82410194081F0200104E064E055
:108830000C7830F824101940114320F8241090E0EF
:10884000B0F850300D78034403EB0513CD8825F0C4
:108850000105A3F80854B0F850300D78034403EB39
:108860000513B3F80C54C5F30905A3F80C540D69AE
:1088700003F20C433E2D00E045E00BD94FEA551CB6
:10888000ED0601D1ACF1010C1D884FF4004848EA17
:108890008C2C0BE035B34FEA550CED0701D00CF1F1
:1088A000010C1D884FF6FF7808EA8C2C45EA0C0570
:1088B0001D800D7830F825305B0408D500E046E0D7
:1088C00030F82530234043EA0A0320F825300978A0
:1088D00061B130F821303B4083F40053134320F85A
:1088E00021303EE01D8845F40045E1E7018839402C
:1088F00081F440511143018033E0254048F2801853
:1089000045EA08051AE791F800C030F82C506D04CC
:1089100006D530F82C50254045EA0A0520F82C50A1
:1089200091F800C030F82C506D0606D530F82C5068
:10893000254045EA090520F82C500D7830F82540EF
:108940003C4084F44054144320F8254070E714431D
:1089500020F825400B7830F823103940114320F8D7
:1089600023103046BDE8F087002070472DE9F04322
:1089700091F80C804F780A7848F6BF7C4BF68F79D7
:1089800048F2800348F2C0054CF2800648F68F7426
:10899000B8F1000F28D0002F30F822704FEA474777
:1089A00048D0002F05DA30F822702740374320F8EE
:1089B00022700A7830F822707F0605D530F82270D0
:1089C00027402F4320F822700D7830F825202240D0
:1089D000324320F825200C7830F8242002EA0C02DB
:1089E0001A4320F824201AE07FB130F8226076067E
:1089F00005D530F8226026402E4320F822600A7800
:108A000030F8221001EA0C010EE030F822506D041B
:108A100005D530F822502540354320F822500A78F9
:108A200030F8221001EA0901194320F82210002031
:108A3000BDE8F083002F05DA30F822702740374375
:108A400020F822700A7830F82260760605D530F8D2
:108A5000226026402E4320F822600E7830F826202F
:108A600022402A4320F826200C7830F8242002EAFD
:108A700009021A4320F82420C1E700207047002093
:108A80007047012120F8401F002101808180018270
:108A90000846704730F8401F21F43F410180002014
:108AA00070470020704730B50A7BB2BB4A7848F661
:108AB0008F7548F28004C2B10B7830F8232052063B
:108AC00007D530F823202A4048F2C0052A4320F871
:108AD0002320CA78012A20D00A7830F8221048F6DC
:108AE000BF73194081F0200114E00A7830F8223079
:108AF0005B0407D530F822302B404CF280052B4325
:108B000020F822300A7830F822104BF68F73194083
:108B100081F44051214320F82210002030BD10B5CF
:108B20004A780978002A48F2800330F8212005D0DD
:108B300048F6BF74224082F0100204E04BF68F74B6
:108B4000224082F480521A4320F82120002010BDD8
:108B50002DE9F0470D464B78097B04464FF000099C
:108B600048F68F7248F2800A4FF400474FF6FF78BC
:108B7000012B09D000296FD0E87802286DD0012898
:108B80006CD00120BDE8F087AE692869864200D923
:108B9000064691B1E97802291ED0286A801B286216
:108BA000287834F820104906B4F85010214401EB1D
:108BB000001073D5A0F80C6416E1B3B2EA88204621
:108BC000696900F06DFAB4F850002978204400EB90
:108BD0000110A0F804640DE1296A814277D929784F
:108BE00034F82100104048F28012104324F821008C
:108BF000286A801B2862287834F820104906697892
:108C000071D511B101292AD030E0B4F850102144B7
:108C100001EB0010B0F80C14C1F30901A0F80C141A
:108C200000F20C403E2E07D97109F20600D1491E10
:108C3000028847EA812107E04EB17108F20700D0AF
:108C4000491C028808EA81210A4302800EE001885B
:108C500041F40041018009E0F1E020E195E1B4F840
:108C60005020111901EB0010A0F80C646A89B3B20E
:108C70002046696900F014FA68693044686129691E
:108C8000286A884202D9801B286202E00646C5F89D
:108C90002090687818B101282BD032E02FE0B4F88A
:108CA00050002978204400EB0110B0F80414C1F3FF
:108CB0000901A0F8041400F204403E2E08D97109FD
:108CC000F20600D1491E028847EA812108E0A1E0AE
:108CD00056B17108F20700D0491C028808EA8121C8
:108CE0000A4302800DE00EE0018841F4004101805A
:108CF00007E0B4F850002978204400EB0110A0F8F8
:108D000004642A8971E011B1012927D02DE0B4F85B
:108D10005010214401EB0010B0F80414C1F3090114
:108D2000A0F8041400F204403E2E07D97109F2069F
:108D300000D1491E028847EA812107E04EB171083F
:108D4000F20700D0491C028808EA81210A43028008
:108D50000BE0018841F40041018006E0B4F85010B6
:108D6000214401EB0010A0F804642A89B3B2204624
:108D7000696900F095F96869304468612969286A71
:108D8000884202D9801B286202E00646C5F820907E
:108D9000687810B1012836D026E0B4F85000297860
:108DA000204400EB0110B0F80C14C1F30901A0F845
:108DB0000C1400F20C403E2E07D97109F20600D1C6
:108DC000491E028847EA812107E04EB17108F20787
:108DD00000D0491C028808EA81210A43028003E08E
:108DE000018841F4004101806A89B3B22046696973
:108DF00000F056F9297834F8210048F6BF72104087
:108E000080F030000FE1B4F850100819297800EB19
:108E10000110CFE62A7834F8220048F68F63184014
:108E200040EA0A0024F82200B4F850002A782044CE
:108E300000EB02108BB2A0F804342A89D6E7A969A6
:108E40002869814202D9091AA96102E00846C5F8D9
:108E50001890B4F850102A78214401EB0211B1F8AF
:108E60000C24C2F30902A1F80C2401F20C413E28A3
:108E70007DD94209C00600D1521E088847EA8222E5
:108E80000AE0088840F4004007E04208C00700D02C
:108E9000521C088808EA822210430880BBE033BBDA
:108EA000B4F850002978204400EB0110B0F8041405
:108EB000C1F30901A0F80414296900F204403E2915
:108EC00007D94B09C90600D15B1E018847EA8323F5
:108ED00007E041B14B08C90700D05B1C018808EAD4
:108EE0008323194302E0018841F40041018068783E
:108EF00010B1012828D030E0B4F85000297820447F
:108F000000EB0110B0F80C14C1F30901A0F80C1427
:108F1000296900F20C403E2907D94B09C90600D146
:108F20005B1E018847EA832307E041B14B08C9076C
:108F300000D05B1C018808EA8323194302E0018802
:108F400041F40041018008E0B4F850100819297874
:108F500000EB0110298AA0F80C14E869C0B3297845
:108F600034F82100430401D5430605D400E046E06F
:108F700044F2400318424ED134F82100104048F228
:108F8000C002104324F8210045E0A9692869814204
:108F900002D9091AA96102E00846C5F8189013BB66
:108FA000B4F850102A78214401EB0211B1F80424DE
:108FB000C2F30902A1F8042401F204413E2808D9B1
:108FC0004209C30600D1521E0B8847EA822208E0FC
:108FD00021E078B14208C30700D0521C0B8808EA90
:108FE000822213430B80697800293FF42EAF0129B8
:108FF00009D010E00A8842F400420A80F3E7002812
:109000007FF443AF3DE7B4F8502011192A7801EB03
:109010000211A1F80C04297834F821004BF68F7264
:10902000104080F4405040EA0A0024F8210000205B
:10903000A8E50021A0F844104FF43F41A0F84010EB
:10904000002070470148FCF74FB9000004160020CB
:109050000148FCF749B9000004160020B0F84400AC
:109060007047000010B500EB42005C0800F580601E
:1090700009D000BF30F8042B01F8012B120A01F8C7
:10908000012B641EF6D1DA0701D00088087010BDEC
:109090000020704711B98021A0F84C1000207047C3
:1090A00010B55B1C00EB42005B0800F5806009D046
:1090B00011F8012B11F8014B42EA042220F8042B8D
:1090C0005B1EF5D110BD000070B5264CA0780028BD
:1090D00046D0207D244EC0074FF4807518D02078EC
:1090E000012804D1012229463046FBF72CFD606996
:1090F000400860612079401E10F0FF0020712FD1E0
:10910000E068401EE06005D0A0686061607926E0FC
:109110000022E8E7E078A17888420AD10020E070D8
:10912000A0700246606129463046BDE87040FBF7FA
:109130000ABD401CC0B2E07000EB40020B4801EBDE
:10914000410150F82230A36000EB82026361536852
:10915000E360127A00EB81002270407A6071207126
:1091600070BD00001000002000080140D80300205E
:1091700070B5044690F98C50866CA8300FC800F08A
:1091800085FAD4E90823012E02D0012D02D006E091
:10919000012D04D000F0B6FDC4E9080170BD00F057
:1091A000C1F9F9E7D0E92421521A322901DD322A26
:1091B00001DC4B211CE0642901DD642A01DC322141
:1091C00016E0C82901DDC82A01DC212110E04FF496
:1091D000C873994201DD9A4201DC162108E04FF480
:1091E0004873994201DD9A4201DC0F2100E00A2117
:1091F000C0F8A010704700002DE9F05F0446D0F8D9
:1092000084000127DFF894B2002504264FF00508FA
:1092100009281CD2DFE800F005387B8BBCE8A8F2F7
:10922000F000A06E012812D12046A566FDF780FD52
:1092300001280ED0A06C4FF47A71484300F0DBFB9C
:10924000C4E902012046FBF77CF9C4F88470BDE84C
:10925000F09FD4E90A23C4E90823A06C16461F46F0
:10926000400000F0C8FB32463B4600F04BFDC4F81E
:109270009050C4F89450C4E902012046FBF761F90C
:1092800025650720E564ACE0E06C20652046FDF72D
:109290004FFD60652046FBF77DF8206D28BBE06C34
:1092A00020B92046FDF739FB206DF0B9E06C0128AC
:1092B0001BD1D4E90A23C4E90823A06C91469A463D
:1092C000400000F098FB4A46534600F01BFDC4F8EE
:1092D0009050C4F89450C4E902012046FBF731F9DC
:1092E00025650720E564C4F88400D4F89800401C84
:1092F000C4F89800584503D16767C4F8985013E044
:10930000606E0128A3D1C4F8846065669FE720469B
:10931000FDF703FBD4F89800401CC4F898005845AA
:10932000EED1A767C4F89850C4F88480E8E72046D7
:10933000FDF7F3FAD4F898005949401CC4F8980096
:10934000884204D1C4F88480E767C4F89850606EFE
:10935000012802D1C4F884606566D4F88800012829
:10936000D4D1C4F8848072E701212046FDF7DCFFE8
:109370002046FBF7A3F9D4F89400401CC4F89400ED
:10938000B0F57A7FBCD1C4F88470C4F89450B7E7C4
:10939000A06E01280DD1A566A06C4FF47A714843E8
:1093A00000F029FBC4E902012046FBF7CAF8C4F823
:1093B0008470206F012809D120462567FBF786F8C5
:1093C0002046FBF7BEF80320C4F88400E06E0128B5
:1093D0009CD10021E566C4E902112046FBF7B1F8F3
:1093E0000220C4F8840032E7606E01288ED144F870
:1093F000645FC4E908652AE71FE0FFE72046FDF740
:109400008CFA606E0128AED1012308221946032090
:10941000FAF79AFF6566A06C00F0EDFAD4E90A232A
:1094200000F080F8C4F89050C4F89450C4E90201E8
:109430002046FBF786F80820D3E72046FDF76DFAB3
:10944000E06C20652046FDF773FC60652046FAF766
:10945000A1FF206DA0B9E06C012811D101230822E1
:1094600019460320FAF770FFC4F89050C4F89450DE
:109470002565E564D4E90A01C4F88460C4E90801FB
:10948000606E0128AFD16566C4F89050C4F894505E
:10949000256544F84C5FA663D9E60000404B4C00BC
:1094A0000065CD1DFEE70907090E002804DB00F169
:1094B000E02080F80014704700F00F0000F1E02079
:1094C00080F8141D70470000FBF750FBFEF704F80E
:1094D000FDF752F8FDF7CAF8FDF744F9FDF7D6F9A4
:1094E000FDF7A2F9FDF7EEF920220A490A48FCF738
:1094F000B1FF0A48FCF73EFC0948FCF73BFCFCF7CF
:10950000C9FFFAF7F9FE0123202219463320FAF7A2
:109510001BFFFEE73006002050060020A0050020BB
:10952000E805002010B591EA030F48BF83F000431F
:1095300000F1FC83841A71EB030C05D2121943EB82
:109540000C03001B61EB0C01DFF824E14FEA11541E
:10955000A4EB135C1EEA430F18BF9EEA445F73D06E
:1095600023EA0E03DCF1200E21EA045143F48013B8
:1095700032D322FA0CFE10EB0E0023FA0CFE41EB64
:109580000E01CCF1200E03FA0EFE10EB0E0051F18D
:109590000001B1F5801FCCF1200E32D201EB045155
:1095A00012FA0EF2BDE8104058BF7047401C38BF99
:1095B0005FEA420218BF7047002814BF20F0010084
:1095C00041F100014FEA410313F5001F38BF704716
:1095D000A1F1C04100F05ABB012A43EB0302ACF1F8
:1095E000200CDCF11F0E32BF4FF0000E23FA0CF3FB
:1095F00010EB030041EB0451B4EB115FD0D0A1EBB1
:10960000045101F5801149085FEA300001EB045173
:109610000ED350F1000038BF12FA0EFE08D1BDE89B
:109620001040C9E7401C38BF5FEA4202CAD1C3E715
:10963000BDE810404FEA410313F5001F38BF7047E3
:10964000A1F1C04100F022BB9EEA445F08D011EABC
:109650005E0FBDE8104004BF01F0004100207047DC
:10966000BDE8104070B500F0C3FA00BF64FBBE3E19
:109670000000E0FF491058BFC1F140415B1058BFE6
:10968000C3F140438B42EFF3008070472DE9C041A6
:1096900030B4DFF8A0C23CEA111418BF3CEA13143E
:1096A00000F0EC8081EA03051CEA111444EAD57449
:1096B00018BF1CEA131500F0C780A4EB05044FF097
:1096C000004545EAC12145EAC32341EA505143EA36
:1096D000525304F17F74994204F500344FEAC020DC
:1096E0004FEAC22208BF904200F09C804FEA136507
:1096F0000FF24016765D4FEA134506FB05F7C7F1FA
:10970000807706FB07F74FEAD737A7FB0368764257
:10971000C8F58038A7FB06CE38BFA8F1010807FBC3
:1097200008E64FF0000EA6FB028CE6FB03CEDCF150
:10973000000CCEF1004E38BFAEF1010EA6FB0C5866
:109740004FF000074FF00005E6FB0E87A1FB08C6AF
:10975000A0FB07CE16EB0E0645F10005E1FB076501
:1097600015F1E04E7EBFA4F580345FEA46066D41F8
:1097700016F1800745F100054FEA17274FEA066604
:1097800047EA0567A6F1DE46B6F1805F4FEA152588
:109790001FD9384624F0010C05EBC471BCF1FE6FF3
:1097A00001EB0C1102D8F0BCBDE8008124425CBF83
:1097B00001F5801E9EEAC47F02D4F0BCBDE80081A2
:1097C000244238D4F0BCA1F1C041BDE8004100F012
:1097D0005DBA4FEAD22242EA43524FEAD323A7FBB3
:1097E00002864FEAD02040EA415007FB03661EEA9A
:1097F0000E0F4FEAD12105FB026658BFA6EB0056BB
:10980000B6EB00564FEA520E4EEAC37E18EB0E0E30
:1098100056EB530EBDD518EB02085E417F1C55F187
:109820000005B6E74FF480154FF000074FF0000633
:109830004FF00008ADE7F0BC4FF0000001F1C0416F
:1098400001F00041BDE8008111EA0C1F0CEA13157C
:1098500000D00CE013EA0C1F00F025804FF0000050
:10986000F0BC81EA030101F00041BDE80081F0BCD9
:10987000BDE8004181EA030100F008BAF0BCBDE890
:10988000004170B500F0B4F9097EFC3E00F007B865
:1098900081EA03014FF0000001F00041704781EAC6
:1098A000030100F0F3B9F0BCBDE800414FF0000047
:1098B00021497047FFFDFBF9F7F5F4F2F0EEEDEB0F
:1098C000E9E8E6E4E3E1E0DEDDDBDAD8D7D5D4D3BE
:1098D000D1D0CFCDCCCBCAC8C7C6C5C4C2C1C0BF0A
:1098E000BEBDBCBBBAB9B8B7B6B5B4B3B2B1B0AF10
:1098F000AEADACABAAA9A8A8A7A6A5A4A3A3A2A1F4
:10990000A09F9F9E9D9C9C9B9A99999897979695AE
:1099100095949393929191908F8F8E8E8D8C8C8B4A
:109920008B8A8989888887878685858484838382D2
:10993000828181800000FF070000F87F4FEA410329
:109940004FEA5353A3F58063D3F11E03C8BFD3F18D
:10995000210C0CDD4FF0004242EAC12242EA505293
:1099600032FA03FC8CEAE17CACEBE1707047102B1F
:10997000C4BF0020704703F5787CBCF1FF3F04D0E2
:109980006FF0004282EA2100704770B500F030F9B4
:109990004992248000207047F2E700004FEA1153FB
:1099A000A3F58063D3F11E03A8BFD3F1200C08DB1D
:1099B0004FF0004242EAC12252EA505232FA03F01A
:1099C000704709420BD4102BC4BF0020704703F529
:1099D000787CBCF1FF3F05D04FF0FF3070474FF06F
:1099E0000000704770B500F003F900BF4992248071
:1099F00000207047F0E710F0004248BF4042B0FA44
:109A000080F310FA03F10AD0C3F11D0303F580635C
:109A10004FEA415002EB035202EBD12170474FF065
:109A20000000704751EA030C17D41CF5801F58BF83
:109A3000BCF5801F00F10680994218BF704708BF2F
:109A40009042704707D711F5801F58BF13F5801F4C
:109A500019D499427047894270471CF5801F08D578
:109A6000BCF5801FF7D58B4218BF704708BF8242F4
:109A700070474FF4001C1CEB410F38BF1CEB430F29
:109A800001D28B42704770B500F0B2F892244900C1
:109A90004FF000514FF08053FFF7ECBDDFF848C1A5
:109AA00070B51CEA111E1EBF1CEA13159EEA0C0FAE
:109AB00095EA0C0F00F06F8081EA030423EA4C134F
:109AC0004EEAD47E21EA4C1141F4801143F4801314
:109AD000AE44A1FB024CA0FB0365AEF17F7E3619BC
